{"abi":[{"type":"function","name":"getPapers","inputs":[{"name":"_user","type":"address","internalType":"address"}],"outputs":[{"name":"","type":"tuple[]","internalType":"struct ResearchPaperRegistry.Paper[]","components":[{"name":"title","type":"string","internalType":"string"},{"name":"author","type":"address","internalType":"address"},{"name":"hash","type":"string","internalType":"string"},{"name":"verified","type":"bool","internalType":"bool"}]}],"stateMutability":"view"},{"type":"function","name":"uploadPaper","inputs":[{"name":"_title","type":"string","internalType":"string"},{"name":"_hash","type":"string","internalType":"string"}],"outputs":[],"stateMutability":"nonpayable"},{"type":"function","name":"userPapers","inputs":[{"name":"","type":"address","internalType":"address"},{"name":"","type":"uint256","internalType":"uint256"}],"outputs":[{"name":"title","type":"string","internalType":"string"},{"name":"author","type":"address","internalType":"address"},{"name":"hash","type":"string","internalType":"string"},{"name":"verified","type":"bool","internalType":"bool"}],"stateMutability":"view"},{"type":"function","name":"verifyPaper","inputs":[{"name":"_user","type":"address","internalType":"address"},{"name":"_index","type":"uint256","internalType":"uint256"}],"outputs":[],"stateMutability":"nonpayable"},{"type":"event","name":"PaperUploaded","inputs":[{"name":"user","type":"address","indexed":true,"internalType":"address"},{"name":"title","type":"string","indexed":false,"internalType":"string"},{"name":"hash","type":"string","indexed":false,"internalType":"string"}],"anonymous":false}],"bytecode":{"object":"0x6080604052348015600e575f5ffd5b5061100c8061001c5f395ff3fe608060405234801561000f575f5ffd5b506004361061004a575f3560e01c8063361fd87a1461004e57806354b498431461007e5780635d0d0b281461009a578063e1fbd380146100cd575b5f5ffd5b61006860048036038101906100639190610770565b6100e9565b6040516100759190610956565b60405180910390f35b610098600480360381019061009391906109a9565b61030f565b005b6100b460048036038101906100af91906109a9565b610409565b6040516100c49493929190610a4d565b60405180910390f35b6100e760048036038101906100e29190610bca565b610585565b005b60605f5f8373ffffffffffffffffffffffffffffffffffffffff1673ffffffffffffffffffffffffffffffffffffffff1681526020019081526020015f20805480602002602001604051908101604052809291908181526020015f905b82821015610304578382905f5260205f2090600402016040518060800160405290815f8201805461017690610c6d565b80601f01602080910402602001604051908101604052809291908181526020018280546101a290610c6d565b80156101ed5780601f106101c4576101008083540402835291602001916101ed565b820191905f5260205f20905b8154815290600101906020018083116101d057829003601f168201915b50505050508152602001600182015f9054906101000a900473ffffffffffffffffffffffffffffffffffffffff1673ffffffffffffffffffffffffffffffffffffffff1673ffffffffffffffffffffffffffffffffffffffff16815260200160028201805461025b90610c6d565b80601f016020809104026020016040519081016040528092919081815260200182805461028790610c6d565b80156102d25780601f106102a9576101008083540402835291602001916102d2565b820191905f5260205f20905b8154815290600101906020018083116102b557829003601f168201915b50505050508152602001600382015f9054906101000a900460ff16151515158152505081526020019060010190610146565b505050509050919050565b5f5f8373ffffffffffffffffffffffffffffffffffffffff1673ffffffffffffffffffffffffffffffffffffffff1681526020019081526020015f20805490508110610390576040517f08c379a000000000000000000000000000000000000000000000000000000000815260040161038790610ce7565b60405180910390fd5b60015f5f8473ffffffffffffffffffffffffffffffffffffffff1673ffffffffffffffffffffffffffffffffffffffff1681526020019081526020015f2082815481106103e0576103df610d05565b5b905f5260205f2090600402016003015f6101000a81548160ff0219169083151502179055505050565b5f602052815f5260405f208181548110610421575f80fd5b905f5260205f2090600402015f9150915050805f01805461044190610c6d565b80601f016020809104026020016040519081016040528092919081815260200182805461046d90610c6d565b80156104b85780601f1061048f576101008083540402835291602001916104b8565b820191905f5260205f20905b81548152906001019060200180831161049b57829003601f168201915b505050505090806001015f9054906101000a900473ffffffffffffffffffffffffffffffffffffffff16908060020180546104f290610c6d565b80601f016020809104026020016040519081016040528092919081815260200182805461051e90610c6d565b80156105695780601f1061054057610100808354040283529160200191610569565b820191905f5260205f20905b81548152906001019060200180831161054c57829003601f168201915b505050505090806003015f9054906101000a900460ff16905084565b5f5f3373ffffffffffffffffffffffffffffffffffffffff1673ffffffffffffffffffffffffffffffffffffffff1681526020019081526020015f2060405180608001604052808481526020013373ffffffffffffffffffffffffffffffffffffffff1681526020018381526020015f1515815250908060018154018082558091505060019003905f5260205f2090600402015f909190919091505f820151815f0190816106339190610ed2565b506020820151816001015f6101000a81548173ffffffffffffffffffffffffffffffffffffffff021916908373ffffffffffffffffffffffffffffffffffffffff160217905550604082015181600201908161068f9190610ed2565b506060820151816003015f6101000a81548160ff02191690831515021790555050503373ffffffffffffffffffffffffffffffffffffffff167fa8b50cab4b5d8c8e9e100377a0fb3f483a0ed214c0ba292974b7cb2f82e96a6d83836040516106f9929190610fa1565b60405180910390a25050565b5f604051905090565b5f5ffd5b5f5ffd5b5f73ffffffffffffffffffffffffffffffffffffffff82169050919050565b5f61073f82610716565b9050919050565b61074f81610735565b8114610759575f5ffd5b50565b5f8135905061076a81610746565b92915050565b5f602082840312156107855761078461070e565b5b5f6107928482850161075c565b91505092915050565b5f81519050919050565b5f82825260208201905092915050565b5f819050602082019050919050565b5f81519050919050565b5f82825260208201905092915050565b8281835e5f83830152505050565b5f601f19601f8301169050919050565b5f610806826107c4565b61081081856107ce565b93506108208185602086016107de565b610829816107ec565b840191505092915050565b61083d81610735565b82525050565b5f8115159050919050565b61085781610843565b82525050565b5f608083015f8301518482035f86015261087782826107fc565b915050602083015161088c6020860182610834565b50604083015184820360408601526108a482826107fc565b91505060608301516108b9606086018261084e565b508091505092915050565b5f6108cf838361085d565b905092915050565b5f602082019050919050565b5f6108ed8261079b565b6108f781856107a5565b935083602082028501610909856107b5565b805f5b85811015610944578484038952815161092585826108c4565b9450610930836108d7565b925060208a0199505060018101905061090c565b50829750879550505050505092915050565b5f6020820190508181035f83015261096e81846108e3565b905092915050565b5f819050919050565b61098881610976565b8114610992575f5ffd5b50565b5f813590506109a38161097f565b92915050565b5f5f604083850312156109bf576109be61070e565b5b5f6109cc8582860161075c565b92505060206109dd85828601610995565b9150509250929050565b5f82825260208201905092915050565b5f610a01826107c4565b610a0b81856109e7565b9350610a1b8185602086016107de565b610a24816107ec565b840191505092915050565b610a3881610735565b82525050565b610a4781610843565b82525050565b5f6080820190508181035f830152610a6581876109f7565b9050610a746020830186610a2f565b8181036040830152610a8681856109f7565b9050610a956060830184610a3e565b95945050505050565b5f5ffd5b5f5ffd5b7f4e487b71000000000000000000000000000000000000000000000000000000005f52604160045260245ffd5b610adc826107ec565b810181811067ffffffffffffffff82111715610afb57610afa610aa6565b5b80604052505050565b5f610b0d610705565b9050610b198282610ad3565b919050565b5f67ffffffffffffffff821115610b3857610b37610aa6565b5b610b41826107ec565b9050602081019050919050565b828183375f83830152505050565b5f610b6e610b6984610b1e565b610b04565b905082815260208101848484011115610b8a57610b89610aa2565b5b610b95848285610b4e565b509392505050565b5f82601f830112610bb157610bb0610a9e565b5b8135610bc1848260208601610b5c565b91505092915050565b5f5f60408385031215610be057610bdf61070e565b5b5f83013567ffffffffffffffff811115610bfd57610bfc610712565b5b610c0985828601610b9d565b925050602083013567ffffffffffffffff811115610c2a57610c29610712565b5b610c3685828601610b9d565b9150509250929050565b7f4e487b71000000000000000000000000000000000000000000000000000000005f52602260045260245ffd5b5f6002820490506001821680610c8457607f821691505b602082108103610c9757610c96610c40565b5b50919050565b7f496e76616c696420706170657220696e646578000000000000000000000000005f82015250565b5f610cd16013836109e7565b9150610cdc82610c9d565b602082019050919050565b5f6020820190508181035f830152610cfe81610cc5565b9050919050565b7f4e487b71000000000000000000000000000000000000000000000000000000005f52603260045260245ffd5b5f819050815f5260205f209050919050565b5f6020601f8301049050919050565b5f82821b905092915050565b5f60088302610d8e7fffffffffffffffffffffffffffffffffffffffffffffffffffffffffffffffff82610d53565b610d988683610d53565b95508019841693508086168417925050509392505050565b5f819050919050565b5f610dd3610dce610dc984610976565b610db0565b610976565b9050919050565b5f819050919050565b610dec83610db9565b610e00610df882610dda565b848454610d5f565b825550505050565b5f5f905090565b610e17610e08565b610e22818484610de3565b505050565b5b81811015610e4557610e3a5f82610e0f565b600181019050610e28565b5050565b601f821115610e8a57610e5b81610d32565b610e6484610d44565b81016020851015610e73578190505b610e87610e7f85610d44565b830182610e27565b50505b505050565b5f82821c905092915050565b5f610eaa5f1984600802610e8f565b1980831691505092915050565b5f610ec28383610e9b565b9150826002028217905092915050565b610edb826107c4565b67ffffffffffffffff811115610ef457610ef3610aa6565b5b610efe8254610c6d565b610f09828285610e49565b5f60209050601f831160018114610f3a575f8415610f28578287015190505b610f328582610eb7565b865550610f99565b601f198416610f4886610d32565b5f5b82811015610f6f57848901518255600182019150602085019450602081019050610f4a565b86831015610f8c5784890151610f88601f891682610e9b565b8355505b6001600288020188555050505b505050505050565b5f6040820190508181035f830152610fb981856109f7565b90508181036020830152610fcd81846109f7565b9050939250505056fea2646970667358221220d5edcf1809ddd6cac9f6d23888ae8c6d289bcbf2c36317f8704838e5f1967a7d64736f6c634300081c0033","linkReferences":{}},"methodIdentifiers":{"getPapers(address)":"361fd87a","uploadPaper(string,string)":"e1fbd380","userPapers(address,uint256)":"5d0d0b28","verifyPaper(address,uint256)":"54b49843"},"id":42}